:1000000026C040C03FC03EC03DC03CC03BC03AC01F
:1000100039C038C037C036C035C034C033C032C034
:1000200031C030C02FC07BC080C085C08AC08FC0A7
:1000300094C099C09EC0A3C0A8C0CDC0D1C0D5C037
:10004000D9C0DDC0E1C0E5C0E9C0EDC0F1C01124F8
:100050001FBECFE5D4E0DEBFCDBF10E0A0E6B0E02C
:10006000E6EBF3E002C005900D92A236B107D9F796
:1000700011E0A2E6B0E001C01D92A235B107E1F7A0
:1000800002D097C1BDCFDF93CF9300D000D0CDB7C2
:10009000DEB713D01A8219821C821B824ED189814D
:1000A0009A812B813C81B90141E050E0E7D0898100
:1000B0009A8101969A838983F1CFDF93CF93CDB74D
:1000C000DEB784E390E02FE0FC01208381E390E041
:1000D00020EFFC01208387E390E02FEFFC012083D9
:1000E000CF91DF910895DF93CF9300D0CDB7DEB7E6
:1000F0009A83898389819A81AA2797FDA095BA2F2F
:1001000040E050E029E030E0841B950B28173907C8
:1001100008F441C08D5E9F4F8F939F93089585E3B0
:1001200090E021E0FC01208336C085E390E022E0EE
:10013000FC01208330C085E390E024E0FC012083B3
:100140002AC085E390E028E0FC01208324C082E3FC
:1001500090E020E1FC0120831EC082E390E020E2D9
:10016000FC01208318C082E390E020E4FC0120839E
:1001700012C082E390E020E8FC0120830CC088E3F9
:1001800090E021E0FC01208306C088E390E022E0BB
:10019000FC01208300000F900F90CF91DF91089514
:1001A000DF93CF9300D0CDB7DEB79A83898389815F
:1001B0009A81AA2797FDA095BA2F40E050E029E048
:1001C00030E0841B950B28173907B8F1835E9F4FE9
:1001D0008F939F93089585E390E0FC0110822DC0DA
:1001E00085E390E0FC01108228C085E390E0FC01EB
:1001F000108223C085E390E0FC0110821EC082E3E0
:1002000090E0FC01108219C082E390E0FC011082B2
:1002100014C082E390E0FC0110820FC082E390E002
:10022000FC0110820AC088E390E0FC01108205C046
:1002300088E390E0FC01108200000F900F90CF91B6
:10024000DF910895DF93CF9300D0CDB7DEB79A83C7
:10025000898388E390E029812295207FFC01208317
:1002600088E390E028E0FC01208388E390E0FC0133
:1002700010820F900F90CF91DF910895DF93CF936D
:1002800000D000D000D0CDB7DEB79A8389837C83BD
:100290006B835E834D8340916000509161002B81A0
:1002A0003C81C901880F991F820F931F880F991FE6
:1002B000880F991F9C0189819A81820F931F880F53
:1002C000991F840F951F2D813E81FC01318320836E
:1002D00026960FB6F894DEBF0FBECDBFCF91DF914B
:1002E0000895DF93CF9300D000D0CDB7DEB79A83C7
:1002F00089837C836B8340916000509161002B81E6
:100300003C81C901880F991F820F931F880F991F85
:10031000880F991F9C0189819A81820F931F880FF2
:10032000991F840F951FFC01808191810F900F9080
:100330000F900F90CF91DF910895DF93CF9300D06E
:1003400000D0CDB7DEB71A82198227C089819A8181
:10035000CADE1C821B8214C08B819C8129813A8158
:10036000B901BFDF9C0181E090E02115310511F05A
:1003700080E090E067DF8B819C8101969C838B837A
:100380008B819C818C3091053CF389819A8108DFB7
:1003900089819A8101969A83898389819A818A3099
:1003A0009105A4F20F900F900F900F90CF91DF91D5
:0603B0000895F894FFCF50
:00000001FF
